{
  "contractName": "CampaignFactory",
  "abi": [
    {
      "constant": true,
      "inputs": [
        {
          "name": "",
          "type": "uint256"
        }
      ],
      "name": "deployedCampaigns",
      "outputs": [
        {
          "name": "",
          "type": "address"
        }
      ],
      "payable": false,
      "stateMutability": "view",
      "type": "function",
      "signature": "0x339d50a5"
    },
    {
      "constant": false,
      "inputs": [
        {
          "name": "minimum",
          "type": "uint256"
        },
        {
          "name": "forWho",
          "type": "address"
        },
        {
          "name": "CampaignName",
          "type": "string"
        },
        {
          "name": "des",
          "type": "string"
        },
        {
          "name": "goal",
          "type": "uint256"
        }
      ],
      "name": "createCampaign",
      "outputs": [],
      "payable": false,
      "stateMutability": "nonpayable",
      "type": "function",
      "signature": "0x44b0c856"
    },
    {
      "constant": true,
      "inputs": [],
      "name": "getDeployedCampaigns",
      "outputs": [
        {
          "name": "",
          "type": "address[]"
        }
      ],
      "payable": false,
      "stateMutability": "view",
      "type": "function",
      "signature": "0x4acb9d4f"
    },
    {
      "constant": true,
      "inputs": [
        {
          "name": "b",
          "type": "address"
        }
      ],
      "name": "getMyCampaigns",
      "outputs": [
        {
          "name": "",
          "type": "address[]"
        }
      ],
      "payable": false,
      "stateMutability": "view",
      "type": "function",
      "signature": "0x64c90966"
    },
    {
      "constant": false,
      "inputs": [
        {
          "name": "index",
          "type": "uint256"
        }
      ],
      "name": "remove",
      "outputs": [],
      "payable": false,
      "stateMutability": "nonpayable",
      "type": "function",
      "signature": "0x4cc82215"
    }
  ],
  "bytecode": "0x608060405234801561001057600080fd5b50612763806100206000396000f3fe60806040526004361061006d576000357c0100000000000000000000000000000000000000000000000000000000900463ffffffff168063339d50a51461007257806344b0c856146100ed5780634acb9d4f146102805780634cc82215146102ec57806364c9096614610327575b600080fd5b34801561007e57600080fd5b506100ab6004803603602081101561009557600080fd5b81019080803590602001909291905050506103cd565b604051808273ffffffffffffffffffffffffffffffffffffffff1673ffffffffffffffffffffffffffffffffffffffff16815260200191505060405180910390f35b3480156100f957600080fd5b5061027e600480360360a081101561011057600080fd5b8101908080359060200190929190803573ffffffffffffffffffffffffffffffffffffffff1690602001909291908035906020019064010000000081111561015757600080fd5b82018360208201111561016957600080fd5b8035906020019184600183028401116401000000008311171561018b57600080fd5b91908080601f016020809104026020016040519081016040528093929190818152602001838380828437600081840152601f19601f820116905080830192505050505050509192919290803590602001906401000000008111156101ee57600080fd5b82018360208201111561020057600080fd5b8035906020019184600183028401116401000000008311171561022257600080fd5b91908080601f016020809104026020016040519081016040528093929190818152602001838380828437600081840152601f19601f8201169050808301925050505050505091929192908035906020019092919050505061040b565b005b34801561028c57600080fd5b5061029561069a565b6040518080602001828103825283818151815260200191508051906020019060200280838360005b838110156102d85780820151818401526020810190506102bd565b505050509050019250505060405180910390f35b3480156102f857600080fd5b506103256004803603602081101561030f57600080fd5b8101908080359060200190929190505050610728565b005b34801561033357600080fd5b506103766004803603602081101561034a57600080fd5b81019080803573ffffffffffffffffffffffffffffffffffffffff16906020019092919050505061080d565b6040518080602001828103825283818151815260200191508051906020019060200280838360005b838110156103b957808201518184015260208101905061039e565b505050509050019250505060405180910390f35b6000818154811015156103dc57fe5b906000526020600020016000915054906101000a900473ffffffffffffffffffffffffffffffffffffffff1681565b600085338686868661041b6108da565b808781526020018673ffffffffffffffffffffffffffffffffffffffff1673ffffffffffffffffffffffffffffffffffffffff1681526020018573ffffffffffffffffffffffffffffffffffffffff1673ffffffffffffffffffffffffffffffffffffffff1681526020018060200180602001848152602001838103835286818151815260200191508051906020019080838360005b838110156104cc5780820151818401526020810190506104b1565b50505050905090810190601f1680156104f95780820380516001836020036101000a031916815260200191505b50838103825285818151815260200191508051906020019080838360005b83811015610532578082015181840152602081019050610517565b50505050905090810190601f16801561055f5780820380516001836020036101000a031916815260200191505b5098505050505050505050604051809103906000f080158015610586573d6000803e3d6000fd5b50905060008190806001815401808255809150509060018203906000526020600020016000909192909190916101000a81548173ffffffffffffffffffffffffffffffffffffffff021916908373ffffffffffffffffffffffffffffffffffffffff16021790555050600160008673ffffffffffffffffffffffffffffffffffffffff1673ffffffffffffffffffffffffffffffffffffffff1681526020019081526020016000208190806001815401808255809150509060018203906000526020600020016000909192909190916101000a81548173ffffffffffffffffffffffffffffffffffffffff021916908373ffffffffffffffffffffffffffffffffffffffff16021790555050505050505050565b6060600080548060200260200160405190810160405280929190818152602001828054801561071e57602002820191906000526020600020905b8160009054906101000a900473ffffffffffffffffffffffffffffffffffffffff1673ffffffffffffffffffffffffffffffffffffffff16815260200190600101908083116106d4575b5050505050905090565b6000805490508110151561073b5761080a565b60008190505b6001600080549050038110156107f25760006001820181548110151561076357fe5b9060005260206000200160009054906101000a900473ffffffffffffffffffffffffffffffffffffffff1660008281548110151561079d57fe5b9060005260206000200160006101000a81548173ffffffffffffffffffffffffffffffffffffffff021916908373ffffffffffffffffffffffffffffffffffffffff1602179055508080600101915050610741565b50600080548091906001900361080891906108ea565b505b50565b6060600160008373ffffffffffffffffffffffffffffffffffffffff1673ffffffffffffffffffffffffffffffffffffffff1681526020019081526020016000208054806020026020016040519081016040528092919081815260200182805480156108ce57602002820191906000526020600020905b8160009054906101000a900473ffffffffffffffffffffffffffffffffffffffff1673ffffffffffffffffffffffffffffffffffffffff1681526020019060010190808311610884575b50505050509050919050565b604051611dfc8061093c83390190565b815481835581811115610911578183600052602060002091820191016109109190610916565b5b505050565b61093891905b8082111561093457600081600090555060010161091c565b5090565b9056fe60806040523480156200001157600080fd5b5060405162001dfc38038062001dfc833981018060405260c08110156200003757600080fd5b8101908080519060200190929190805190602001909291908051906020019092919080516401000000008111156200006e57600080fd5b828101905060208101848111156200008557600080fd5b8151856001820283011164010000000082111715620000a357600080fd5b50509291906020018051640100000000811115620000c057600080fd5b82810190506020810184811115620000d757600080fd5b8151856001820283011164010000000082111715620000f557600080fd5b50509291906020018051906020019092919050505084600160006101000a81548173ffffffffffffffffffffffffffffffffffffffff021916908373ffffffffffffffffffffffffffffffffffffffff1602179055508560028190555083600560006101000a81548173ffffffffffffffffffffffffffffffffffffffff021916908373ffffffffffffffffffffffffffffffffffffffff1602179055508260069080519060200190620001ab929190620001d8565b508160079080519060200190620001c4929190620001d8565b508060088190555050505050505062000287565b828054600181600116156101000203166002900490600052602060002090601f016020900481019282601f106200021b57805160ff19168380011785556200024c565b828001600101855582156200024c579182015b828111156200024b5782518255916020019190600101906200022e565b5b5090506200025b91906200025f565b5090565b6200028491905b808211156200028057600081600090555060010162000266565b5090565b90565b611b6580620002976000396000f3fe608060405260043610610112576000357c0100000000000000000000000000000000000000000000000000000000900463ffffffff16806303441006146101175780630a14439114610152578063208152db146101bb5780633410452a146101e657806338af3eed146102115780634051ddac14610268578063481c6a75146103ed5780634a79d50c146104445780634f995d08146104d457806370740aab1461058857806381d12c581461061857806382fde0931461071857806383920e90146107435780638a9cfd55146107f7578063937e09b1146108e95780639ace38c2146109145780639b2e4702146109965780639e7a13ad14610a11578063d7bb99ba14610a93578063d7d1bbdb14610a9d575b600080fd5b34801561012357600080fd5b506101506004803603602081101561013a57600080fd5b8101908080359060200190929190505050610ad8565b005b34801561015e57600080fd5b506101a16004803603602081101561017557600080fd5b81019080803573ffffffffffffffffffffffffffffffffffffffff169060200190929190505050610ca6565b604051808215151515815260200191505060405180910390f35b3480156101c757600080fd5b506101d0610cc6565b6040518082815260200191505060405180910390f35b3480156101f257600080fd5b506101fb610ccc565b6040518082815260200191505060405180910390f35b34801561021d57600080fd5b50610226610cd8565b604051808273ffffffffffffffffffffffffffffffffffffffff1673ffffffffffffffffffffffffffffffffffffffff16815260200191505060405180910390f35b34801561027457600080fd5b5061027d610cfe565b604051808a81526020018981526020018881526020018781526020018673ffffffffffffffffffffffffffffffffffffffff1673ffffffffffffffffffffffffffffffffffffffff1681526020018573ffffffffffffffffffffffffffffffffffffffff1673ffffffffffffffffffffffffffffffffffffffff1681526020018060200180602001848152602001838103835286818151815260200191508051906020019080838360005b83811015610343578082015181840152602081019050610328565b50505050905090810190601f1680156103705780820380516001836020036101000a031916815260200191505b50838103825285818151815260200191508051906020019080838360005b838110156103a957808201518184015260208101905061038e565b50505050905090810190601f1680156103d65780820380516001836020036101000a031916815260200191505b509b50505050505050505050505060405180910390f35b3480156103f957600080fd5b50610402610ed5565b604051808273ffffffffffffffffffffffffffffffffffffffff1673ffffffffffffffffffffffffffffffffffffffff16815260200191505060405180910390f35b34801561045057600080fd5b50610459610efb565b6040518080602001828103825283818151815260200191508051906020019080838360005b8381101561049957808201518184015260208101905061047e565b50505050905090810190601f1680156104c65780820380516001836020036101000a031916815260200191505b509250505060405180910390f35b3480156104e057600080fd5b506104e9610f99565b604051808060200180602001838103835285818151815260200191508051906020019060200280838360005b83811015610530578082015181840152602081019050610515565b50505050905001838103825284818151815260200191508051906020019060200280838360005b83811015610572578082015181840152602081019050610557565b5050505090500194505050505060405180910390f35b34801561059457600080fd5b5061059d6110ed565b6040518080602001828103825283818151815260200191508051906020019080838360005b838110156105dd5780820151818401526020810190506105c2565b50505050905090810190601f16801561060a5780820380516001836020036101000a031916815260200191505b509250505060405180910390f35b34801561062457600080fd5b506106516004803603602081101561063b57600080fd5b810190808035906020019092919050505061118b565b60405180806020018681526020018573ffffffffffffffffffffffffffffffffffffffff1673ffffffffffffffffffffffffffffffffffffffff16815260200184151515158152602001838152602001828103825287818151815260200191508051906020019080838360005b838110156106d95780820151818401526020810190506106be565b50505050905090810190601f1680156107065780820380516001836020036101000a031916815260200191505b50965050505050505060405180910390f35b34801561072457600080fd5b5061072d611295565b6040518082815260200191505060405180910390f35b34801561074f57600080fd5b5061075861129b565b604051808060200180602001838103835285818151815260200191508051906020019060200280838360005b8381101561079f578082015181840152602081019050610784565b50505050905001838103825284818151815260200191508051906020019060200280838360005b838110156107e15780820151818401526020810190506107c6565b5050505090500194505050505060405180910390f35b34801561080357600080fd5b506108e76004803603606081101561081a57600080fd5b810190808035906020019064010000000081111561083757600080fd5b82018360208201111561084957600080fd5b8035906020019184600183028401116401000000008311171561086b57600080fd5b91908080601f016020809104026020016040519081016040528093929190818152602001838380828437600081840152601f19601f82011690508083019250505050505050919291929080359060200190929190803573ffffffffffffffffffffffffffffffffffffffff1690602001909291905050506113ef565b005b3480156108f557600080fd5b506108fe61150a565b6040518082815260200191505060405180910390f35b34801561092057600080fd5b5061094d6004803603602081101561093757600080fd5b8101908080359060200190929190505050611510565b604051808373ffffffffffffffffffffffffffffffffffffffff1673ffffffffffffffffffffffffffffffffffffffff1681526020018281526020019250505060405180910390f35b3480156109a257600080fd5b50610a0f600480360360608110156109b957600080fd5b81019080803573ffffffffffffffffffffffffffffffffffffffff169060200190929190803573ffffffffffffffffffffffffffffffffffffffff16906020019092919080359060200190929190505050611563565b005b348015610a1d57600080fd5b50610a4a60048036036020811015610a3457600080fd5b8101908080359060200190929190505050611608565b604051808373ffffffffffffffffffffffffffffffffffffffff1673ffffffffffffffffffffffffffffffffffffffff1681526020018281526020019250505060405180910390f35b610a9b61165b565b005b348015610aa957600080fd5b50610ad660048036036020811015610ac057600080fd5b81019080803590602001909291905050506118a7565b005b60008082815481101515610ae857fe5b906000526020600020906005020190508060020160149054906101000a900460ff16151515610b1657600080fd5b6002600454811515610b2457fe5b048160030154111515610b3657600080fd5b8060020160009054906101000a900473ffffffffffffffffffffffffffffffffffffffff1673ffffffffffffffffffffffffffffffffffffffff166108fc82600101549081150290604051600060405180830381858888f19350505050158015610ba4573d6000803e3d6000fd5b5060018160020160146101000a81548160ff021916908315150217905550610bca6119ec565b60408051908101604052808360020160009054906101000a900473ffffffffffffffffffffffffffffffffffffffff1673ffffffffffffffffffffffffffffffffffffffff16815260200183600101548152509050600a819080600181540180825580915050906001820390600052602060002090600202016000909192909190915060008201518160000160006101000a81548173ffffffffffffffffffffffffffffffffffffffff021916908373ffffffffffffffffffffffffffffffffffffffff16021790555060208201518160010155505050505050565b60036020528060005260406000206000915054906101000a900460ff1681565b60085481565b60008080549050905090565b600560009054906101000a900473ffffffffffffffffffffffffffffffffffffffff1681565b60008060008060008060608060006002543073ffffffffffffffffffffffffffffffffffffffff1631600080549050600454600160009054906101000a900473ffffffffffffffffffffffffffffffffffffffff16600560009054906101000a900473ffffffffffffffffffffffffffffffffffffffff1660066007600854839350828054600181600116156101000203166002900480601f016020809104026020016040519081016040528092919081815260200182805460018160011615610100020316600290048015610e155780601f10610dea57610100808354040283529160200191610e15565b820191906000526020600020905b815481529060010190602001808311610df857829003601f168201915b50505050509250818054600181600116156101000203166002900480601f016020809104026020016040519081016040528092919081815260200182805460018160011615610100020316600290048015610eb15780601f10610e8657610100808354040283529160200191610eb1565b820191906000526020600020905b815481529060010190602001808311610e9457829003601f168201915b50505050509150985098509850985098509850985098509850909192939495969798565b600160009054906101000a900473ffffffffffffffffffffffffffffffffffffffff1681565b60068054600181600116156101000203166002900480601f016020809104026020016040519081016040528092919081815260200182805460018160011615610100020316600290048015610f915780601f10610f6657610100808354040283529160200191610f91565b820191906000526020600020905b815481529060010190602001808311610f7457829003601f168201915b505050505081565b6060806060600980549050604051908082528060200260200182016040528015610fd25781602001602082028038833980820191505090505b509050606060098054905060405190808252806020026020018201604052801561100b5781602001602082028038833980820191505090505b50905060008090505b6009805490508110156110e057600060098281548110151561103257fe5b906000526020600020906002020190508060000160009054906101000a900473ffffffffffffffffffffffffffffffffffffffff16848381518110151561107557fe5b9060200190602002019073ffffffffffffffffffffffffffffffffffffffff16908173ffffffffffffffffffffffffffffffffffffffff1681525050806001015483838151811015156110c457fe5b9060200190602002018181525050508080600101915050611014565b5081819350935050509091565b60078054600181600116156101000203166002900480601f0160208091040260200160405190810160405280929190818152602001828054600181600116156101000203166002900480156111835780601f1061115857610100808354040283529160200191611183565b820191906000526020600020905b81548152906001019060200180831161116657829003601f168201915b505050505081565b60008181548110151561119a57fe5b9060005260206000209060050201600091509050806000018054600181600116156101000203166002900480601f0160208091040260200160405190810160405280929190818152602001828054600181600116156101000203166002900480156112465780601f1061121b57610100808354040283529160200191611246565b820191906000526020600020905b81548152906001019060200180831161122957829003601f168201915b5050505050908060010154908060020160009054906101000a900473ffffffffffffffffffffffffffffffffffffffff16908060020160149054906101000a900460ff16908060030154905085565b60045481565b6060806060600a805490506040519080825280602002602001820160405280156112d45781602001602082028038833980820191505090505b5090506060600a8054905060405190808252806020026020018201604052801561130d5781602001602082028038833980820191505090505b50905060008090505b600a805490508110156113e2576000600a8281548110151561133457fe5b906000526020600020906002020190508060000160009054906101000a900473ffffffffffffffffffffffffffffffffffffffff16848381518110151561137757fe5b9060200190602002019073ffffffffffffffffffffffffffffffffffffffff16908173ffffffffffffffffffffffffffffffffffffffff1681525050806001015483838151811015156113c657fe5b9060200190602002018181525050508080600101915050611316565b5081819350935050509091565b6113f7611a1c565b60a0604051908101604052808581526020018481526020018373ffffffffffffffffffffffffffffffffffffffff16815260200160001515815260200160008152509050600081908060018154018082558091505090600182039060005260206000209060050201600090919290919091506000820151816000019080519060200190611485929190611a64565b506020820151816001015560408201518160020160006101000a81548173ffffffffffffffffffffffffffffffffffffffff021916908373ffffffffffffffffffffffffffffffffffffffff16021790555060608201518160020160146101000a81548160ff0219169083151502179055506080820151816003015550505050505050565b60025481565b600a8181548110151561151f57fe5b90600052602060002090600202016000915090508060000160009054906101000a900473ffffffffffffffffffffffffffffffffffffffff16908060010154905082565b60008390508073ffffffffffffffffffffffffffffffffffffffff16634cc82215836040518263ffffffff167c010000000000000000000000000000000000000000000000000000000002815260040180828152602001915050600060405180830381600087803b1580156115d757600080fd5b505af11580156115eb573d6000803e3d6000fd5b505050508273ffffffffffffffffffffffffffffffffffffffff16ff5b60098181548110151561161757fe5b90600052602060002090600202016000915090508060000160009054906101000a900473ffffffffffffffffffffffffffffffffffffffff16908060010154905082565b600254341015151561166c57600080fd5b60011515600360003373ffffffffffffffffffffffffffffffffffffffff1673ffffffffffffffffffffffffffffffffffffffff16815260200190815260200160002060009054906101000a900460ff1615151415611782576116cd611ae4565b60408051908101604052803373ffffffffffffffffffffffffffffffffffffffff1681526020013481525090506009819080600181540180825580915050906001820390600052602060002090600202016000909192909190915060008201518160000160006101000a81548173ffffffffffffffffffffffffffffffffffffffff021916908373ffffffffffffffffffffffffffffffffffffffff16021790555060208201518160010155505050506118a5565b6001600360003373ffffffffffffffffffffffffffffffffffffffff1673ffffffffffffffffffffffffffffffffffffffff16815260200190815260200160002060006101000a81548160ff0219169083151502179055506004600081548092919060010191905055506117f4611ae4565b60408051908101604052803373ffffffffffffffffffffffffffffffffffffffff1681526020013481525090506009819080600181540180825580915050906001820390600052602060002090600202016000909192909190915060008201518160000160006101000a81548173ffffffffffffffffffffffffffffffffffffffff021916908373ffffffffffffffffffffffffffffffffffffffff16021790555060208201518160010155505050505b565b600080828154811015156118b757fe5b90600052602060002090600502019050600360003373ffffffffffffffffffffffffffffffffffffffff1673ffffffffffffffffffffffffffffffffffffffff16815260200190815260200160002060009054906101000a900460ff16151561191f57600080fd5b8060040160003373ffffffffffffffffffffffffffffffffffffffff1673ffffffffffffffffffffffffffffffffffffffff16815260200190815260200160002060009054906101000a900460ff1615151561197a57600080fd5b60018160040160003373ffffffffffffffffffffffffffffffffffffffff1673ffffffffffffffffffffffffffffffffffffffff16815260200190815260200160002060006101000a81548160ff02191690831515021790555080600301600081548092919060010191905055505050565b6040805190810160405280600073ffffffffffffffffffffffffffffffffffffffff168152602001600081525090565b60a0604051908101604052806060815260200160008152602001600073ffffffffffffffffffffffffffffffffffffffff168152602001600015158152602001600081525090565b828054600181600116156101000203166002900490600052602060002090601f016020900481019282601f10611aa557805160ff1916838001178555611ad3565b82800160010185558215611ad3579182015b82811115611ad2578251825591602001919060010190611ab7565b5b509050611ae09190611b14565b5090565b6040805190810160405280600073ffffffffffffffffffffffffffffffffffffffff168152602001600081525090565b611b3691905b80821115611b32576000816000905550600101611b1a565b5090565b9056fea165627a7a7230582060307f72a7ea7950921c8779a04c9d142f3c198672bfafd30838bea01bd815e90029a165627a7a7230582078431aa2356391222cdcdced53adbee92b24ac949a12a8aaa9e9254dc594d4610029",
  "source": "pragma solidity ^0.5.0;\r\n\r\ncontract CampaignFactory {\r\n    address[] public deployedCampaigns;\r\n    mapping(address=> address[]) deployed;\r\n    \r\n\r\n    \r\n    function createCampaign(uint minimum , address payable forWho , string memory CampaignName , string memory des, uint goal) public {\r\n    address newCampaign = address(new Campaign(minimum , msg.sender , forWho , CampaignName  , des , goal));\r\n    deployedCampaigns.push(newCampaign);\r\n    deployed[forWho].push(newCampaign);\r\n    \r\n}  \r\n\r\n\r\nfunction getDeployedCampaigns() public view returns (address[] memory)\r\n{\r\n    return deployedCampaigns;\r\n}\r\nfunction getMyCampaigns(address b) public view returns (address[] memory)\r\n{\r\n    return deployed[b];\r\n}\r\n\r\n    \r\n        \r\n    \r\nfunction remove(uint index) public  {\r\n        if (index >= deployedCampaigns.length) return;\r\n\r\n        for (uint i = index; i<deployedCampaigns.length-1; i++){\r\n            deployedCampaigns[i] = deployedCampaigns[i+1];\r\n        }\r\n        deployedCampaigns.length--;\r\n        \r\n    }\r\n    \r\n}\r\n\r\n\r\ncontract Campaign {\r\n    struct Request {\r\n        string description;\r\n        uint value;\r\n        address payable recipient;\r\n        bool complete;\r\n        uint approvalCount;\r\n        mapping(address=> bool) approvals;\r\n    }\r\n    \r\n    \r\n    Request[] public requests;\r\n    address public manager;\r\n    uint public minimumContribution;\r\n    mapping(address => bool) public approvers;\r\n    uint public approversCount;\r\n    address payable public beneficiary;\r\n    string public title;\r\n    string public purpose;\r\n    uint public goalAmt;\r\n    \r\n   \r\n    \r\n    modifier restricted() {\r\n        require(msg.sender == manager);\r\n        _;\r\n    }\r\n    \r\n    constructor(uint minimum , address creater , address payable forWho , string memory CampaignName , string memory des, uint goal) public\r\n    {\r\n        manager = creater;\r\n        minimumContribution = minimum;\r\n        beneficiary= forWho;\r\n        title= CampaignName;\r\n        purpose= des;\r\n        goalAmt= goal;\r\n        \r\n    }\r\n    function contribute() public payable\r\n    {\r\n        require(msg.value >= minimumContribution);\r\n        if(approvers[msg.sender]== true)\r\n        {\r\n          Person memory newPerson = Person({\r\n           addr: msg.sender,\r\n           funds: msg.value\r\n         });\r\n         \r\n         people.push(newPerson);   \r\n        }\r\n        else{\r\n             approvers[msg.sender] = true;\r\n        approversCount++;\r\n         Person memory newPerson = Person({\r\n           addr: msg.sender,\r\n           funds: msg.value\r\n         });\r\n         \r\n         people.push(newPerson);  \r\n        }\r\n     \r\n        \r\n    }\r\n    function createRequest(string memory description , uint value , address payable recipient) \r\n    public {\r\n         Request memory newRequest = Request({\r\n            description: description,\r\n            value: value,\r\n            recipient: recipient,\r\n            complete: false,\r\n            approvalCount: 0\r\n         });\r\n         \r\n         requests.push(newRequest);\r\n        \r\n    }\r\n    function approveRequest(uint index) public\r\n    {   Request storage request = requests[index];\r\n        \r\n        require(approvers[msg.sender]);\r\n        require(!request.approvals[msg.sender]);\r\n        //require(address(this).balance > request.value);\r\n        \r\n        request.approvals[msg.sender]= true;\r\n        request.approvalCount++;\r\n    \r\n    }\r\n    function finalizeRequest(uint index) public\r\n    {   Request storage request = requests[index];  \r\n        require(!request.complete);\r\n        require(request.approvalCount > (approversCount/2));\r\n        request.recipient.transfer(request.value);\r\n        request.complete = true;\r\n        Transaction memory newTransaction = Transaction({\r\n                to: request.recipient,\r\n                amount:request.value\r\n            });\r\n            \r\n            transactions.push(newTransaction);\r\n        \r\n    }\r\n    function getSummary() public view returns (uint, uint, uint, uint, address, address, string memory, string memory, uint)\r\n    {\r\n        return (minimumContribution,\r\n        address(this).balance,\r\n        requests.length,\r\n        approversCount,\r\n        manager,\r\n        beneficiary,\r\n        title,\r\n        purpose,\r\n        goalAmt);\r\n    }\r\n   \r\n    function getRequestsCount() public view returns (uint)\r\n    {\r\n        return requests.length;\r\n    }\r\n    struct Person {\r\n        address addr;\r\n        uint funds;\r\n    }\r\n    \r\n    Person[] public people;\r\n    \r\n    function getPeople()\r\n        public view\r\n        returns (address[] memory, uint[] memory)\r\n    {\r\n        address[] memory addrs = new address[](people.length);\r\n        uint[]    memory funds = new uint[](people.length);\r\n        \r\n        for (uint i = 0; i < people.length; i++) {\r\n            Person storage person = people[i];\r\n            addrs[i] = person.addr;\r\n            funds[i] = person.funds;\r\n        }\r\n        \r\n        return (addrs, funds);\r\n    }\r\n   \r\n   \r\n  \r\n     function destruct(address campaignaddr ,address payable to,  uint index ) public\r\n    {   CampaignFactory factory =  CampaignFactory(campaignaddr);\r\n     \r\n     factory.remove(index);\r\n        selfdestruct(to);\r\n       \r\n       \r\n        \r\n    }\r\n     struct Transaction {\r\n        \r\n        address to;\r\n        uint amount;\r\n    }\r\n    Transaction[] public transactions;\r\n\r\n     function getTransactions()\r\n        public view returns (address[] memory,uint[] memory) \r\n        {\r\n           \r\n            address[] memory to1 = new address[](transactions.length);\r\n            uint[] memory amt1 = new uint[](transactions.length);\r\n           \r\n           for(uint i=0 ; i<transactions.length; i++){\r\n                Transaction storage t = transactions[i];\r\n                //sender1[i]= t.sender;\r\n                to1[i] = t.to;\r\n                amt1[i] = t.amount;\r\n            }\r\n           \r\n          return (to1, amt1);\r\n    }\r\n    \r\n   \r\n}",
  "sourcePath": "C:/Users/Ajita.Pancholi/Desktop/ui3/truffle1/contracts/CampaignFactory.sol",
  "compiler": {
    "name": "solc",
    "version": "0.5.0+commit.1d4f565a.Emscripten.clang"
  },
  "schemaVersion": "3.0.0",
  "updatedAt": "2019-01-10T03:52:29.182Z",
  "devdoc": {
    "methods": {}
  },
  "userdoc": {
    "methods": {}
  }
}